{
    "contractName": "MyStrategy",
    "abi": [
        {
            "anonymous": false,
            "inputs": [
                {
                    "indexed": false,
                    "internalType": "uint256",
                    "name": "harvested",
                    "type": "uint256"
                },
                {
                    "indexed": true,
                    "internalType": "uint256",
                    "name": "blockNumber",
                    "type": "uint256"
                }
            ],
            "name": "Harvest",
            "type": "event"
        },
        {
            "anonymous": false,
            "inputs": [
                {
                    "indexed": false,
                    "internalType": "address",
                    "name": "account",
                    "type": "address"
                }
            ],
            "name": "Paused",
            "type": "event"
        },
        {
            "anonymous": false,
            "inputs": [
                {
                    "indexed": false,
                    "internalType": "address",
                    "name": "controller",
                    "type": "address"
                }
            ],
            "name": "SetController",
            "type": "event"
        },
        {
            "anonymous": false,
            "inputs": [
                {
                    "indexed": false,
                    "internalType": "address",
                    "name": "governance",
                    "type": "address"
                }
            ],
            "name": "SetGovernance",
            "type": "event"
        },
        {
            "anonymous": false,
            "inputs": [
                {
                    "indexed": false,
                    "internalType": "uint256",
                    "name": "performanceFeeGovernance",
                    "type": "uint256"
                }
            ],
            "name": "SetPerformanceFeeGovernance",
            "type": "event"
        },
        {
            "anonymous": false,
            "inputs": [
                {
                    "indexed": false,
                    "internalType": "uint256",
                    "name": "performanceFeeStrategist",
                    "type": "uint256"
                }
            ],
            "name": "SetPerformanceFeeStrategist",
            "type": "event"
        },
        {
            "anonymous": false,
            "inputs": [
                {
                    "indexed": false,
                    "internalType": "address",
                    "name": "strategist",
                    "type": "address"
                }
            ],
            "name": "SetStrategist",
            "type": "event"
        },
        {
            "anonymous": false,
            "inputs": [
                {
                    "indexed": false,
                    "internalType": "uint256",
                    "name": "withdrawalFee",
                    "type": "uint256"
                }
            ],
            "name": "SetWithdrawalFee",
            "type": "event"
        },
        {
            "anonymous": false,
            "inputs": [
                {
                    "indexed": false,
                    "internalType": "uint256",
                    "name": "tended",
                    "type": "uint256"
                }
            ],
            "name": "Tend",
            "type": "event"
        },
        {
            "anonymous": false,
            "inputs": [
                {
                    "indexed": false,
                    "internalType": "address",
                    "name": "account",
                    "type": "address"
                }
            ],
            "name": "Unpaused",
            "type": "event"
        },
        {
            "anonymous": false,
            "inputs": [
                {
                    "indexed": false,
                    "internalType": "uint256",
                    "name": "amount",
                    "type": "uint256"
                }
            ],
            "name": "Withdraw",
            "type": "event"
        },
        {
            "anonymous": false,
            "inputs": [
                {
                    "indexed": false,
                    "internalType": "uint256",
                    "name": "balance",
                    "type": "uint256"
                }
            ],
            "name": "WithdrawAll",
            "type": "event"
        },
        {
            "anonymous": false,
            "inputs": [
                {
                    "indexed": false,
                    "internalType": "address",
                    "name": "token",
                    "type": "address"
                },
                {
                    "indexed": false,
                    "internalType": "uint256",
                    "name": "amount",
                    "type": "uint256"
                }
            ],
            "name": "WithdrawOther",
            "type": "event"
        },
        {
            "inputs": [],
            "name": "LENDING_POOL",
            "outputs": [
                {
                    "internalType": "address",
                    "name": "",
                    "type": "address"
                }
            ],
            "stateMutability": "view",
            "type": "function"
        },
        {
            "inputs": [],
            "name": "MAX_FEE",
            "outputs": [
                {
                    "internalType": "uint256",
                    "name": "",
                    "type": "uint256"
                }
            ],
            "stateMutability": "view",
            "type": "function"
        },
        {
            "inputs": [
                {
                    "internalType": "address",
                    "name": "_governance",
                    "type": "address"
                },
                {
                    "internalType": "address",
                    "name": "_strategist",
                    "type": "address"
                },
                {
                    "internalType": "address",
                    "name": "_controller",
                    "type": "address"
                },
                {
                    "internalType": "address",
                    "name": "_keeper",
                    "type": "address"
                },
                {
                    "internalType": "address",
                    "name": "_guardian",
                    "type": "address"
                }
            ],
            "name": "__BaseStrategy_init",
            "outputs": [],
            "stateMutability": "nonpayable",
            "type": "function"
        },
        {
            "inputs": [],
            "name": "balanceOf",
            "outputs": [
                {
                    "internalType": "uint256",
                    "name": "",
                    "type": "uint256"
                }
            ],
            "stateMutability": "view",
            "type": "function"
        },
        {
            "inputs": [],
            "name": "balanceOfPool",
            "outputs": [
                {
                    "internalType": "uint256",
                    "name": "",
                    "type": "uint256"
                }
            ],
            "stateMutability": "view",
            "type": "function"
        },
        {
            "inputs": [],
            "name": "balanceOfWant",
            "outputs": [
                {
                    "internalType": "uint256",
                    "name": "",
                    "type": "uint256"
                }
            ],
            "stateMutability": "view",
            "type": "function"
        },
        {
            "inputs": [],
            "name": "baseStrategyVersion",
            "outputs": [
                {
                    "internalType": "string",
                    "name": "",
                    "type": "string"
                }
            ],
            "stateMutability": "view",
            "type": "function"
        },
        {
            "inputs": [],
            "name": "controller",
            "outputs": [
                {
                    "internalType": "address",
                    "name": "",
                    "type": "address"
                }
            ],
            "stateMutability": "view",
            "type": "function"
        },
        {
            "inputs": [],
            "name": "deposit",
            "outputs": [],
            "stateMutability": "nonpayable",
            "type": "function"
        },
        {
            "inputs": [],
            "name": "getName",
            "outputs": [
                {
                    "internalType": "string",
                    "name": "",
                    "type": "string"
                }
            ],
            "stateMutability": "pure",
            "type": "function"
        },
        {
            "inputs": [],
            "name": "getProtectedTokens",
            "outputs": [
                {
                    "internalType": "address[]",
                    "name": "",
                    "type": "address[]"
                }
            ],
            "stateMutability": "view",
            "type": "function"
        },
        {
            "inputs": [],
            "name": "governance",
            "outputs": [
                {
                    "internalType": "address",
                    "name": "",
                    "type": "address"
                }
            ],
            "stateMutability": "view",
            "type": "function"
        },
        {
            "inputs": [],
            "name": "guardian",
            "outputs": [
                {
                    "internalType": "address",
                    "name": "",
                    "type": "address"
                }
            ],
            "stateMutability": "view",
            "type": "function"
        },
        {
            "inputs": [],
            "name": "harvest",
            "outputs": [
                {
                    "internalType": "uint256",
                    "name": "harvested",
                    "type": "uint256"
                }
            ],
            "stateMutability": "nonpayable",
            "type": "function"
        },
        {
            "inputs": [
                {
                    "internalType": "uint256",
                    "name": "price",
                    "type": "uint256"
                }
            ],
            "name": "harvest",
            "outputs": [
                {
                    "internalType": "uint256",
                    "name": "harvested",
                    "type": "uint256"
                }
            ],
            "stateMutability": "nonpayable",
            "type": "function"
        },
        {
            "inputs": [
                {
                    "internalType": "address",
                    "name": "_governance",
                    "type": "address"
                },
                {
                    "internalType": "address",
                    "name": "_strategist",
                    "type": "address"
                },
                {
                    "internalType": "address",
                    "name": "_controller",
                    "type": "address"
                },
                {
                    "internalType": "address",
                    "name": "_keeper",
                    "type": "address"
                },
                {
                    "internalType": "address",
                    "name": "_guardian",
                    "type": "address"
                },
                {
                    "internalType": "address[3]",
                    "name": "_wantConfig",
                    "type": "address[3]"
                },
                {
                    "internalType": "uint256[3]",
                    "name": "_feeConfig",
                    "type": "uint256[3]"
                }
            ],
            "name": "initialize",
            "outputs": [],
            "stateMutability": "nonpayable",
            "type": "function"
        },
        {
            "inputs": [],
            "name": "isTendable",
            "outputs": [
                {
                    "internalType": "bool",
                    "name": "",
                    "type": "bool"
                }
            ],
            "stateMutability": "view",
            "type": "function"
        },
        {
            "inputs": [],
            "name": "keeper",
            "outputs": [
                {
                    "internalType": "address",
                    "name": "",
                    "type": "address"
                }
            ],
            "stateMutability": "view",
            "type": "function"
        },
        {
            "inputs": [],
            "name": "lpComponent",
            "outputs": [
                {
                    "internalType": "address",
                    "name": "",
                    "type": "address"
                }
            ],
            "stateMutability": "view",
            "type": "function"
        },
        {
            "inputs": [],
            "name": "pause",
            "outputs": [],
            "stateMutability": "nonpayable",
            "type": "function"
        },
        {
            "inputs": [],
            "name": "paused",
            "outputs": [
                {
                    "internalType": "bool",
                    "name": "",
                    "type": "bool"
                }
            ],
            "stateMutability": "view",
            "type": "function"
        },
        {
            "inputs": [],
            "name": "performanceFeeGovernance",
            "outputs": [
                {
                    "internalType": "uint256",
                    "name": "",
                    "type": "uint256"
                }
            ],
            "stateMutability": "view",
            "type": "function"
        },
        {
            "inputs": [],
            "name": "performanceFeeStrategist",
            "outputs": [
                {
                    "internalType": "uint256",
                    "name": "",
                    "type": "uint256"
                }
            ],
            "stateMutability": "view",
            "type": "function"
        },
        {
            "inputs": [],
            "name": "reward",
            "outputs": [
                {
                    "internalType": "address",
                    "name": "",
                    "type": "address"
                }
            ],
            "stateMutability": "view",
            "type": "function"
        },
        {
            "inputs": [
                {
                    "internalType": "address",
                    "name": "_controller",
                    "type": "address"
                }
            ],
            "name": "setController",
            "outputs": [],
            "stateMutability": "nonpayable",
            "type": "function"
        },
        {
            "inputs": [
                {
                    "internalType": "address",
                    "name": "_governance",
                    "type": "address"
                }
            ],
            "name": "setGovernance",
            "outputs": [],
            "stateMutability": "nonpayable",
            "type": "function"
        },
        {
            "inputs": [
                {
                    "internalType": "address",
                    "name": "_guardian",
                    "type": "address"
                }
            ],
            "name": "setGuardian",
            "outputs": [],
            "stateMutability": "nonpayable",
            "type": "function"
        },
        {
            "inputs": [
                {
                    "internalType": "uint256",
                    "name": "_setKeepReward",
                    "type": "uint256"
                }
            ],
            "name": "setKeepReward",
            "outputs": [],
            "stateMutability": "nonpayable",
            "type": "function"
        },
        {
            "inputs": [
                {
                    "internalType": "address",
                    "name": "_keeper",
                    "type": "address"
                }
            ],
            "name": "setKeeper",
            "outputs": [],
            "stateMutability": "nonpayable",
            "type": "function"
        },
        {
            "inputs": [
                {
                    "internalType": "uint256",
                    "name": "_performanceFeeGovernance",
                    "type": "uint256"
                }
            ],
            "name": "setPerformanceFeeGovernance",
            "outputs": [],
            "stateMutability": "nonpayable",
            "type": "function"
        },
        {
            "inputs": [
                {
                    "internalType": "uint256",
                    "name": "_performanceFeeStrategist",
                    "type": "uint256"
                }
            ],
            "name": "setPerformanceFeeStrategist",
            "outputs": [],
            "stateMutability": "nonpayable",
            "type": "function"
        },
        {
            "inputs": [
                {
                    "internalType": "address",
                    "name": "_strategist",
                    "type": "address"
                }
            ],
            "name": "setStrategist",
            "outputs": [],
            "stateMutability": "nonpayable",
            "type": "function"
        },
        {
            "inputs": [
                {
                    "internalType": "uint256",
                    "name": "_withdrawalFee",
                    "type": "uint256"
                }
            ],
            "name": "setWithdrawalFee",
            "outputs": [],
            "stateMutability": "nonpayable",
            "type": "function"
        },
        {
            "inputs": [
                {
                    "internalType": "uint256",
                    "name": "_threshold",
                    "type": "uint256"
                }
            ],
            "name": "setWithdrawalMaxDeviationThreshold",
            "outputs": [],
            "stateMutability": "nonpayable",
            "type": "function"
        },
        {
            "inputs": [],
            "name": "strategist",
            "outputs": [
                {
                    "internalType": "address",
                    "name": "",
                    "type": "address"
                }
            ],
            "stateMutability": "view",
            "type": "function"
        },
        {
            "inputs": [],
            "name": "tend",
            "outputs": [],
            "stateMutability": "nonpayable",
            "type": "function"
        },
        {
            "inputs": [],
            "name": "uniswap",
            "outputs": [
                {
                    "internalType": "address",
                    "name": "",
                    "type": "address"
                }
            ],
            "stateMutability": "view",
            "type": "function"
        },
        {
            "inputs": [],
            "name": "unpause",
            "outputs": [],
            "stateMutability": "nonpayable",
            "type": "function"
        },
        {
            "inputs": [],
            "name": "version",
            "outputs": [
                {
                    "internalType": "string",
                    "name": "",
                    "type": "string"
                }
            ],
            "stateMutability": "pure",
            "type": "function"
        },
        {
            "inputs": [],
            "name": "want",
            "outputs": [
                {
                    "internalType": "address",
                    "name": "",
                    "type": "address"
                }
            ],
            "stateMutability": "view",
            "type": "function"
        },
        {
            "inputs": [
                {
                    "internalType": "uint256",
                    "name": "_amount",
                    "type": "uint256"
                }
            ],
            "name": "withdraw",
            "outputs": [],
            "stateMutability": "nonpayable",
            "type": "function"
        },
        {
            "inputs": [],
            "name": "withdrawAll",
            "outputs": [
                {
                    "internalType": "uint256",
                    "name": "balance",
                    "type": "uint256"
                }
            ],
            "stateMutability": "nonpayable",
            "type": "function"
        },
        {
            "inputs": [
                {
                    "internalType": "address",
                    "name": "_asset",
                    "type": "address"
                }
            ],
            "name": "withdrawOther",
            "outputs": [
                {
                    "internalType": "uint256",
                    "name": "balance",
                    "type": "uint256"
                }
            ],
            "stateMutability": "nonpayable",
            "type": "function"
        },
        {
            "inputs": [],
            "name": "withdrawalFee",
            "outputs": [
                {
                    "internalType": "uint256",
                    "name": "",
                    "type": "uint256"
                }
            ],
            "stateMutability": "view",
            "type": "function"
        },
        {
            "inputs": [],
            "name": "withdrawalMaxDeviationThreshold",
            "outputs": [
                {
                    "internalType": "uint256",
                    "name": "",
                    "type": "uint256"
                }
            ],
            "stateMutability": "view",
            "type": "function"
        }
    ],
    "bytecode": "608060405234801561001057600080fd5b50612480806100206000396000f3fe608060405234801561001057600080fd5b506004361061027f5760003560e01c80637e744eea1161015c578063bc063e1a116100ce578063e066ca1311610087578063e066ca1314610495578063e3b0a9df1461049d578063ed4bdce1146104a5578063f55462f4146104ba578063f77c4791146104cd578063fb883d0c146104d55761027f565b8063bc063e1a14610444578063c1a3d44c1461044c578063c7b9d53014610454578063d0e30db014610467578063d704ba9b1461046f578063ddc63262146104825761027f565b80638bc7e8c4116101205780638bc7e8c4146103f357806392eefe9b146103fb578063ab033ea91461040e578063ac1e502514610421578063aced166114610434578063b4dcfc771461043c5761027f565b80637e744eea146103b55780638456cb59146103bd5780638457213a146103c5578063853828b6146103d85780638a0dac4a146103e05761027f565b8063440368a3116101f557806354fd4d50116101b957806354fd4d50146103625780635aa6e6751461036a5780635c975abb14610372578063611cb26a14610387578063722713f71461039a578063748747e6146103a25761027f565b8063440368a31461032f578063452a9320146103375780634641257d1461033f5780634c2798ad14610347578063504a16471461035a5761027f565b80631fe4a686116102475780631fe4a686146102e7578063228cb733146102ef5780632681f7e4146102f75780632e1a7d4d146102ff5780633951f3df146103145780633f4ba83a146103275761027f565b8063115880861461028457806315b18ddd146102a257806317d7de7c146102aa5780631bd43be3146102bf5780631f1fcd51146102d2575b600080fd5b61028c6104dd565b60405161029991906123d9565b60405180910390f35b61028c6104e3565b6102b26104e9565b6040516102999190611eb2565b61028c6102cd366004611c1f565b61050f565b6102da6105f3565b6040516102999190611e13565b6102da610602565b6102da610611565b6102da610620565b61031261030d366004611dc7565b610638565b005b610312610322366004611c57565b610787565b610312610895565b6103126108a7565b6102da6108d2565b61028c6108e1565b610312610355366004611dc7565b610a7b565b61028c610a86565b6102b2610a8c565b6102da610aa9565b61037a610ab8565b6040516102999190611ea7565b610312610395366004611cc7565b610ac1565b61028c610bd6565b6103126103b0366004611c1f565b610bfc565b61037a610c26565b610312610c2b565b6103126103d3366004611dc7565b610c3b565b61028c610c6a565b6103126103ee366004611c1f565b610d22565b61028c610d4c565b610312610409366004611c1f565b610d52565b61031261041c366004611c1f565b610d7c565b61031261042f366004611dc7565b610da6565b6102da610dd5565b6102da610de4565b61028c610dfc565b61028c610e02565b610312610462366004611c1f565b610e83565b610312610ead565b61031261047d366004611dc7565b610f72565b61028c610490366004611dc7565b610fa1565b6102b2610fc7565b6102da610fe4565b6104ad610ff3565b6040516102999190611e5a565b6103126104c8366004611dc7565b6110a5565b6102da6110d4565b61028c6110e3565b60005b90565b609b5481565b60408051808201909152600c81526b53747261746567794e616d6560a01b602082015290565b60335460009060ff161561053e5760405162461bcd60e51b81526004016105359061210f565b60405180910390fd5b6105466110e9565b61054f82611113565b6040516370a0823160e01b81526001600160a01b038316906370a082319061057b903090600401611e13565b60206040518083038186803b15801561059357600080fd5b505afa1580156105a7573d6000803e3d6000fd5b505050506040513d601f19601f820116820180604052508101906105cb9190611ddf565b609e549091506105ee906001600160a01b0384811691168363ffffffff61117d16565b919050565b609a546001600160a01b031681565b6066546001600160a01b031681565b60d3546001600160a01b031681565b737a250d5630b4cf539739df2c5dacb4c659f2488d81565b60335460ff161561065b5760405162461bcd60e51b81526004016105359061210f565b6106636110e9565b61066c816104e0565b50609a546040516370a0823160e01b81526000916001600160a01b0316906370a082319061069e903090600401611e13565b60206040518083038186803b1580156106b657600080fd5b505afa1580156106ca573d6000803e3d6000fd5b505050506040513d601f19601f820116820180604052508101906106ee9190611ddf565b90508181101561074e57600061070483836111d3565b905061072d61271061072160a0548661120e90919063ffffffff16565b9063ffffffff61124816565b81111561074c5760405162461bcd60e51b815260040161053590611f13565b505b600061075a828461128a565b90506000610767826112a0565b905061078161077c838363ffffffff61137616565b6113b8565b50505050565b600054610100900460ff16806107a057506107a0611489565b806107ae575060005460ff16155b6107ca5760405162461bcd60e51b815260040161053590612139565b600054610100900460ff161580156107f5576000805460ff1961ff0019909116610100171660011790555b60335460ff16156108185760405162461bcd60e51b81526004016105359061210f565b61082061148f565b606580546001600160a01b03199081166001600160a01b0389811691909117909255606680548216888416179055606780548216868416179055609e80548216878416179055609f8054909116918416919091179055603260a055801561088d576000805461ff00191690555b505050505050565b61089d611521565b6108a561154b565b565b60335460ff16156108ca5760405162461bcd60e51b81526004016105359061210f565b6108a56115b7565b609f546001600160a01b031681565b60335460009060ff16156109075760405162461bcd60e51b81526004016105359061210f565b61090f6115b7565b609a546040516370a0823160e01b81526000916001600160a01b0316906370a0823190610940903090600401611e13565b60206040518083038186803b15801561095857600080fd5b505afa15801561096c573d6000803e3d6000fd5b505050506040513d601f19601f820116820180604052508101906109909190611ddf565b609a546040516370a0823160e01b8152919250600091610a289184916001600160a01b03909116906370a08231906109cc903090600401611e13565b60206040518083038186803b1580156109e457600080fd5b505afa1580156109f8573d6000803e3d6000fd5b505050506040513d601f19601f82011682018060405250810190610a1c9190611ddf565b9063ffffffff61137616565b9050600080610a36836115f6565b91509150437f6c8433a8e155f0af04dba058d4e4695f7da554578963d876bdf4a6d8d6399d9c84604051610a6a91906123d9565b60405180910390a250909250505090565b610a83611521565b50565b609c5481565b6040805180820190915260038152620312e360ec1b602082015290565b6065546001600160a01b031681565b60335460ff1690565b600054610100900460ff1680610ada5750610ada611489565b80610ae8575060005460ff16155b610b045760405162461bcd60e51b815260040161053590612139565b600054610100900460ff16158015610b2f576000805460ff1961ff0019909116610100171660011790555b610b3c8888888888610787565b8251609a80546001600160a01b03199081166001600160a01b03938416179182905560208087015160d28054841691861691909117905560408088015160d38054909416908616179092558551609b55850151609c55840151609d55610bba9116738dff5e27ea6b7ac08ebfdf9eb090f32ee9a30fcf6000196116cd565b8015610bcc576000805461ff00191690555b5050505050505050565b6000610bf7610be36104dd565b610beb610e02565b9063ffffffff61179016565b905090565b610c04611521565b606780546001600160a01b0319166001600160a01b0392909216919091179055565b600190565b610c336117b5565b6108a56117f4565b610c43611521565b612710811115610c655760405162461bcd60e51b815260040161053590612288565b609b55565b60335460009060ff1615610c905760405162461bcd60e51b81526004016105359061210f565b610c986110e9565b610ca06108a5565b609a546040516370a0823160e01b81526104e0916001600160a01b0316906370a0823190610cd2903090600401611e13565b60206040518083038186803b158015610cea57600080fd5b505afa158015610cfe573d6000803e3d6000fd5b505050506040513d601f19601f8201168201806040525081019061077c9190611ddf565b610d2a611521565b609f80546001600160a01b0319166001600160a01b0392909216919091179055565b609d5481565b610d5a611521565b609e80546001600160a01b0319166001600160a01b0392909216919091179055565b610d84611521565b606580546001600160a01b0319166001600160a01b0392909216919091179055565b610dae611521565b612710811115610dd05760405162461bcd60e51b8152600401610535906120c9565b609d55565b6067546001600160a01b031681565b738dff5e27ea6b7ac08ebfdf9eb090f32ee9a30fcf81565b61271081565b609a546040516370a0823160e01b81526000916001600160a01b0316906370a0823190610e33903090600401611e13565b60206040518083038186803b158015610e4b57600080fd5b505afa158015610e5f573d6000803e3d6000fd5b505050506040513d601f19601f82011682018060405250810190610bf79190611ddf565b610e8b611521565b606680546001600160a01b0319166001600160a01b0392909216919091179055565b60335460ff1615610ed05760405162461bcd60e51b81526004016105359061210f565b610ed861184d565b609a546040516370a0823160e01b81526000916001600160a01b0316906370a0823190610f09903090600401611e13565b60206040518083038186803b158015610f2157600080fd5b505afa158015610f35573d6000803e3d6000fd5b505050506040513d601f19601f82011682018060405250810190610f599190611ddf565b90508015610f6a57610f6a81610a83565b610a836108a5565b610f7a611521565b612710811115610f9c5760405162461bcd60e51b815260040161053590612214565b60a055565b60335460009060ff16156105ee5760405162461bcd60e51b81526004016105359061210f565b60408051808201909152600381526218971960e91b602082015290565b60d2546001600160a01b031681565b604080516003808252608082019092526060918291906020820183803683375050609a5482519293506001600160a01b03169183915060009061103257fe5b6001600160a01b03928316602091820292909201015260d25482519116908290600190811061105d57fe5b6001600160a01b03928316602091820292909201015260d35482519116908290600290811061108857fe5b6001600160a01b0390921660209283029190910190910152905090565b6110ad611521565b6127108111156110cf5760405162461bcd60e51b815260040161053590612077565b609c55565b609e546001600160a01b031681565b60a05481565b609e546001600160a01b031633146108a55760405162461bcd60e51b81526004016105359061201a565b606061111d610ff3565b905060005b815181101561117857826001600160a01b031682828151811061114157fe5b60200260200101516001600160a01b031614156111705760405162461bcd60e51b815260040161053590612187565b600101611122565b505050565b6111788363a9059cbb60e01b848460405160240161119c929190611e41565b60408051601f198184030181529190526020810180516001600160e01b03166001600160e01b0319909316929092179091526118a1565b6000818310156111f55760405162461bcd60e51b815260040161053590611f96565b611205838363ffffffff61137616565b90505b92915050565b60008261121d57506000611208565b8282028284828161122a57fe5b04146112055760405162461bcd60e51b8152600401610535906121b3565b600061120583836040518060400160405280601a81526020017f536166654d6174683a206469766973696f6e206279207a65726f000000000000815250611930565b60008183106112995781611205565b5090919050565b6000609d54600014156112b5575060006105ee565b60006112d2612710610721609d548661120e90919063ffffffff16565b9050611208609e60009054906101000a90046001600160a01b03166001600160a01b0316639ec5a8946040518163ffffffff1660e01b815260040160206040518083038186803b15801561132557600080fd5b505afa158015611339573d6000803e3d6000fd5b505050506040513d601f19601f8201168201806040525081019061135d9190611c3b565b609a546001600160a01b0316908363ffffffff61117d16565b600061120583836040518060400160405280601e81526020017f536166654d6174683a207375627472616374696f6e206f766572666c6f770000815250611967565b609e54609a54604051632988bb9f60e21b81526000926001600160a01b039081169263a622ee7c926113f09290911690600401611e13565b60206040518083038186803b15801561140857600080fd5b505afa15801561141c573d6000803e3d6000fd5b505050506040513d601f19601f820116820180604052508101906114409190611c3b565b90506001600160a01b0381166114685760405162461bcd60e51b8152600401610535906121f4565b609a54611485906001600160a01b0316828463ffffffff61117d16565b5050565b303b1590565b600054610100900460ff16806114a857506114a8611489565b806114b6575060005460ff16155b6114d25760405162461bcd60e51b815260040161053590612139565b600054610100900460ff161580156114fd576000805460ff1961ff0019909116610100171660011790555b611505611993565b61150d611a14565b8015610a83576000805461ff001916905550565b6065546001600160a01b031633146108a55760405162461bcd60e51b81526004016105359061235b565b60335460ff1661156d5760405162461bcd60e51b815260040161053590611f68565b6033805460ff191690557f5db9ee0a495bf2e6ff9c91a7834c1ba4fdd244a5e8aa4e537bd38aeae4b073aa6115a0611aa0565b6040516115ad9190611e13565b60405180910390a1565b6067546001600160a01b03163314806115da57506065546001600160a01b031633145b6108a55760405162461bcd60e51b815260040161053590611ee5565b6000806116a1609a60009054906101000a90046001600160a01b031684609b54609e60009054906101000a90046001600160a01b03166001600160a01b0316639ec5a8946040518163ffffffff1660e01b815260040160206040518083038186803b15801561166457600080fd5b505afa158015611678573d6000803e3d6000fd5b505050506040513d601f19601f8201168201806040525081019061169c9190611c3b565b611aa4565b609a54609c546066549294506116c6926001600160a01b039283169287929116611aa4565b9050915091565b8015806117555750604051636eb1769f60e11b81526001600160a01b0384169063dd62ed3e906117039030908690600401611e27565b60206040518083038186803b15801561171b57600080fd5b505afa15801561172f573d6000803e3d6000fd5b505050506040513d601f19601f820116820180604052508101906117539190611ddf565b155b6117715760405162461bcd60e51b815260040161053590612383565b6111788363095ea7b360e01b848460405160240161119c929190611e41565b6000828201838110156112055760405162461bcd60e51b815260040161053590611fe3565b609f546001600160a01b03163314806117d857506065546001600160a01b031633145b6108a55760405162461bcd60e51b815260040161053590612263565b60335460ff16156118175760405162461bcd60e51b81526004016105359061210f565b6033805460ff191660011790557f62e78cea01bee320cd4e420270b5ea74000d11b0c9f74754ebdbfc544b05a2586115a0611aa0565b6067546001600160a01b031633148061187057506065546001600160a01b031633145b806118855750609e546001600160a01b031633145b6108a55760405162461bcd60e51b815260040161053590612042565b60606118f6826040518060400160405280602081526020017f5361666545524332303a206c6f772d6c6576656c2063616c6c206661696c6564815250856001600160a01b0316611af29092919063ffffffff16565b80519091501561117857808060200190518101906119149190611da7565b6111785760405162461bcd60e51b815260040161053590612311565b600081836119515760405162461bcd60e51b81526004016105359190611eb2565b50600083858161195d57fe5b0495945050505050565b6000818484111561198b5760405162461bcd60e51b81526004016105359190611eb2565b505050900390565b600054610100900460ff16806119ac57506119ac611489565b806119ba575060005460ff16155b6119d65760405162461bcd60e51b815260040161053590612139565b600054610100900460ff1615801561150d576000805460ff1961ff0019909116610100171660011790558015610a83576000805461ff001916905550565b600054610100900460ff1680611a2d5750611a2d611489565b80611a3b575060005460ff16155b611a575760405162461bcd60e51b815260040161053590612139565b600054610100900460ff16158015611a82576000805460ff1961ff0019909116610100171660011790555b6033805460ff191690558015610a83576000805461ff001916905550565b3390565b600082611ab357506000611aea565b6000611acb612710610721878763ffffffff61120e16565b9050611ae76001600160a01b038716848363ffffffff61117d16565b90505b949350505050565b6060611aea84846000856060611b0785611bc0565b611b235760405162461bcd60e51b8152600401610535906122da565b60006060866001600160a01b03168587604051611b409190611df7565b60006040518083038185875af1925050503d8060008114611b7d576040519150601f19603f3d011682016040523d82523d6000602084013e611b82565b606091505b50915091508115611b96579150611aea9050565b805115611ba65780518082602001fd5b8360405162461bcd60e51b81526004016105359190611eb2565b3b151590565b600082601f830112611bd6578081fd5b611be060606123e2565b9050808284606085011115611bf457600080fd5b60005b6003811015611c16578135835260209283019290910190600101611bf7565b50505092915050565b600060208284031215611c30578081fd5b813561120581612435565b600060208284031215611c4c578081fd5b815161120581612435565b600080600080600060a08688031215611c6e578081fd5b8535611c7981612435565b94506020860135611c8981612435565b93506040860135611c9981612435565b92506060860135611ca981612435565b91506080860135611cb981612435565b809150509295509295909350565b6000806000806000806000610160888a031215611ce2578182fd5b8735611ced81612435565b9650602088810135611cfe81612435565b96506040890135611d0e81612435565b95506060890135611d1e81612435565b94506080890135611d2e81612435565b935060bf89018a13611d3e578283fd5b611d4860606123e2565b8060a08b016101008c018d811115611d5e578687fd5b865b6003811015611d86578235611d7481612435565b85529385019391850191600101611d60565b50829650611d948e82611bc6565b9550505050505092959891949750929550565b600060208284031215611db8578081fd5b81518015158114611205578182fd5b600060208284031215611dd8578081fd5b5035919050565b600060208284031215611df0578081fd5b5051919050565b60008251611e09818460208701612409565b9190910192915050565b6001600160a01b0391909116815260200190565b6001600160a01b0392831681529116602082015260400190565b6001600160a01b03929092168252602082015260400190565b6020808252825182820181905260009190848201906040850190845b81811015611e9b5783516001600160a01b031683529284019291840191600101611e76565b50909695505050505050565b901515815260200190565b6000602082528251806020840152611ed1816040850160208701612409565b601f01601f19169190910160400192915050565b6020808252601490820152736f6e6c79417574686f72697a65644163746f727360601b604082015260600190565b60208082526035908201527f626173652d73747261746567792f77697468647261772d6578636565642d6d616040820152741e0b59195d9a585d1a5bdb8b5d1a1c995cda1bdb19605a1b606082015260800190565b60208082526014908201527314185d5cd8589b194e881b9bdd081c185d5cd95960621b604082015260600190565b6020808252602d908201527f646966662f65787065637465642d6869676865722d6e756d6265722d696e2d6660408201526c34b939ba16b837b9b4ba34b7b760991b606082015260800190565b6020808252601b908201527f536166654d6174683a206164646974696f6e206f766572666c6f770000000000604082015260600190565b6020808252600e908201526d37b7363ca1b7b73a3937b63632b960911b604082015260600190565b6020808252818101527f6f6e6c79417574686f72697a65644163746f72734f72436f6e74726f6c6c6572604082015260600190565b60208082526032908201527f626173652d73747261746567792f6578636573736976652d737472617465676960408201527173742d706572666f726d616e63652d66656560701b606082015260800190565b60208082526026908201527f626173652d73747261746567792f6578636573736976652d7769746864726177604082015265616c2d66656560d01b606082015260800190565b60208082526010908201526f14185d5cd8589b194e881c185d5cd95960821b604082015260600190565b6020808252602e908201527f496e697469616c697a61626c653a20636f6e747261637420697320616c72656160408201526d191e481a5b9a5d1a585b1a5e995960921b606082015260800190565b602080825260129082015271105cdcd95d081a5cc81c1c9bdd1958dd195960721b604082015260600190565b60208082526021908201527f536166654d6174683a206d756c7469706c69636174696f6e206f766572666c6f6040820152607760f81b606082015260800190565b602080825260069082015265085d985d5b1d60d21b604082015260600190565b6020808252602f908201527f626173652d73747261746567792f6578636573736976652d6d61782d6465766960408201526e185d1a5bdb8b5d1a1c995cda1bdb19608a1b606082015260800190565b6020808252600b908201526a6f6e6c795061757365727360a81b604082015260600190565b60208082526032908201527f626173652d73747261746567792f6578636573736976652d676f7665726e616e60408201527163652d706572666f726d616e63652d66656560701b606082015260800190565b6020808252601d908201527f416464726573733a2063616c6c20746f206e6f6e2d636f6e7472616374000000604082015260600190565b6020808252602a908201527f5361666545524332303a204552433230206f7065726174696f6e20646964206e6040820152691bdd081cdd58d8d9595960b21b606082015260800190565b6020808252600e908201526d6f6e6c79476f7665726e616e636560901b604082015260600190565b60208082526036908201527f5361666545524332303a20617070726f76652066726f6d206e6f6e2d7a65726f60408201527520746f206e6f6e2d7a65726f20616c6c6f77616e636560501b606082015260800190565b90815260200190565b60405181810167ffffffffffffffff8111828210171561240157600080fd5b604052919050565b60005b8381101561242457818101518382015260200161240c565b838111156107815750506000910152565b6001600160a01b0381168114610a8357600080fdfea26469706673582212202b4393ec4a6382876b3bb277017d77cdad15f8d6d6fa7632def3da840246641264736f6c634300060b0033",
    "sourcePath": "/home/realdiganta/Desktop/ethereum/gitcoin/dbr-aave-polygon-strategy/contracts/MyStrategy.sol",
    "compiler": {
        "name": "solc",
        "version": "0.6.11+commit.5ef660b1"
    },
    "functionHashes": {
        "LENDING_POOL()": "b4dcfc77",
        "MAX_FEE()": "bc063e1a",
        "__BaseStrategy_init(address,address,address,address,address)": "3951f3df",
        "balanceOf()": "722713f7",
        "balanceOfPool()": "11588086",
        "balanceOfWant()": "c1a3d44c",
        "baseStrategyVersion()": "e066ca13",
        "controller()": "f77c4791",
        "deposit()": "d0e30db0",
        "getName()": "17d7de7c",
        "getProtectedTokens()": "ed4bdce1",
        "governance()": "5aa6e675",
        "guardian()": "452a9320",
        "harvest()": "4641257d",
        "harvest(uint256)": "ddc63262",
        "initialize(address,address,address,address,address,address[3],uint256[3])": "611cb26a",
        "isTendable()": "7e744eea",
        "keeper()": "aced1661",
        "lpComponent()": "e3b0a9df",
        "pause()": "8456cb59",
        "paused()": "5c975abb",
        "performanceFeeGovernance()": "15b18ddd",
        "performanceFeeStrategist()": "504a1647",
        "reward()": "228cb733",
        "setController(address)": "92eefe9b",
        "setGovernance(address)": "ab033ea9",
        "setGuardian(address)": "8a0dac4a",
        "setKeepReward(uint256)": "4c2798ad",
        "setKeeper(address)": "748747e6",
        "setPerformanceFeeGovernance(uint256)": "8457213a",
        "setPerformanceFeeStrategist(uint256)": "f55462f4",
        "setStrategist(address)": "c7b9d530",
        "setWithdrawalFee(uint256)": "ac1e5025",
        "setWithdrawalMaxDeviationThreshold(uint256)": "d704ba9b",
        "strategist()": "1fe4a686",
        "tend()": "440368a3",
        "uniswap()": "2681f7e4",
        "unpause()": "3f4ba83a",
        "version()": "54fd4d50",
        "want()": "1f1fcd51",
        "withdraw(uint256)": "2e1a7d4d",
        "withdrawAll()": "853828b6",
        "withdrawOther(address)": "1bd43be3",
        "withdrawalFee()": "8bc7e8c4",
        "withdrawalMaxDeviationThreshold()": "fb883d0c"
    },
    "gasEstimates": {
        "creation": {
            "codeDepositCost": "1868800",
            "executionCost": "1969",
            "totalCost": "1870769"
        },
        "external": {
            "LENDING_POOL()": "407",
            "MAX_FEE()": "273",
            "__BaseStrategy_init(address,address,address,address,address)": "infinite",
            "balanceOf()": "infinite",
            "balanceOfPool()": "276",
            "balanceOfWant()": "infinite",
            "baseStrategyVersion()": "infinite",
            "controller()": "1202",
            "deposit()": "infinite",
            "getName()": "infinite",
            "getProtectedTokens()": "infinite",
            "governance()": "1137",
            "guardian()": "1138",
            "harvest()": "infinite",
            "harvest(uint256)": "1342",
            "initialize(address,address,address,address,address,address[3],uint256[3])": "infinite",
            "isTendable()": "280",
            "keeper()": "1203",
            "lpComponent()": "1136",
            "pause()": "infinite",
            "paused()": "1129",
            "performanceFeeGovernance()": "1097",
            "performanceFeeStrategist()": "1162",
            "reward()": "1138",
            "setController(address)": "22100",
            "setGovernance(address)": "22122",
            "setGuardian(address)": "22167",
            "setKeepReward(uint256)": "1322",
            "setKeeper(address)": "22188",
            "setPerformanceFeeGovernance(uint256)": "21204",
            "setPerformanceFeeStrategist(uint256)": "21224",
            "setStrategist(address)": "22122",
            "setWithdrawalFee(uint256)": "21225",
            "setWithdrawalMaxDeviationThreshold(uint256)": "21247",
            "strategist()": "1116",
            "tend()": "infinite",
            "uniswap()": "342",
            "unpause()": "infinite",
            "version()": "infinite",
            "want()": "1205",
            "withdraw(uint256)": "infinite",
            "withdrawAll()": "infinite",
            "withdrawOther(address)": "infinite",
            "withdrawalFee()": "1073",
            "withdrawalMaxDeviationThreshold()": "1182"
        },
        "internal": {
            "_deposit(uint256)": "infinite",
            "_onlyNotProtectedTokens(address)": "infinite",
            "_processPerformanceFees(uint256)": "infinite",
            "_withdrawAll()": "infinite",
            "_withdrawSome(uint256)": "infinite"
        }
    }
}